{
  "_format": "hh-sol-artifact-1",
  "contractName": "UkrainianSmoothie",
  "sourceName": "contracts/UkrainianSmoothie.sol",
  "abi": [
    {
      "inputs": [
        {
          "internalType": "string",
          "name": "_name",
          "type": "string"
        },
        {
          "internalType": "string",
          "name": "_symbol",
          "type": "string"
        },
        {
          "internalType": "string",
          "name": "_uri",
          "type": "string"
        }
      ],
      "stateMutability": "nonpayable",
      "type": "constructor"
    },
    {
      "anonymous": false,
      "inputs": [
        {
          "indexed": true,
          "internalType": "address",
          "name": "owner",
          "type": "address"
        },
        {
          "indexed": true,
          "internalType": "address",
          "name": "approved",
          "type": "address"
        },
        {
          "indexed": true,
          "internalType": "uint256",
          "name": "tokenId",
          "type": "uint256"
        }
      ],
      "name": "Approval",
      "type": "event"
    },
    {
      "anonymous": false,
      "inputs": [
        {
          "indexed": true,
          "internalType": "address",
          "name": "owner",
          "type": "address"
        },
        {
          "indexed": true,
          "internalType": "address",
          "name": "operator",
          "type": "address"
        },
        {
          "indexed": false,
          "internalType": "bool",
          "name": "approved",
          "type": "bool"
        }
      ],
      "name": "ApprovalForAll",
      "type": "event"
    },
    {
      "anonymous": false,
      "inputs": [
        {
          "indexed": true,
          "internalType": "address",
          "name": "previousOwner",
          "type": "address"
        },
        {
          "indexed": true,
          "internalType": "address",
          "name": "newOwner",
          "type": "address"
        }
      ],
      "name": "OwnershipTransferred",
      "type": "event"
    },
    {
      "anonymous": false,
      "inputs": [
        {
          "indexed": true,
          "internalType": "address",
          "name": "from",
          "type": "address"
        },
        {
          "indexed": true,
          "internalType": "address",
          "name": "to",
          "type": "address"
        },
        {
          "indexed": true,
          "internalType": "uint256",
          "name": "tokenId",
          "type": "uint256"
        }
      ],
      "name": "Transfer",
      "type": "event"
    },
    {
      "inputs": [],
      "name": "MAX_MINT",
      "outputs": [
        {
          "internalType": "uint256",
          "name": "",
          "type": "uint256"
        }
      ],
      "stateMutability": "view",
      "type": "function"
    },
    {
      "inputs": [],
      "name": "MAX_PER_MINT",
      "outputs": [
        {
          "internalType": "uint256",
          "name": "",
          "type": "uint256"
        }
      ],
      "stateMutability": "view",
      "type": "function"
    },
    {
      "inputs": [],
      "name": "active",
      "outputs": [
        {
          "internalType": "bool",
          "name": "",
          "type": "bool"
        }
      ],
      "stateMutability": "view",
      "type": "function"
    },
    {
      "inputs": [
        {
          "internalType": "address",
          "name": "to",
          "type": "address"
        },
        {
          "internalType": "uint256",
          "name": "tokenId",
          "type": "uint256"
        }
      ],
      "name": "approve",
      "outputs": [],
      "stateMutability": "nonpayable",
      "type": "function"
    },
    {
      "inputs": [
        {
          "internalType": "address",
          "name": "owner",
          "type": "address"
        }
      ],
      "name": "balanceOf",
      "outputs": [
        {
          "internalType": "uint256",
          "name": "",
          "type": "uint256"
        }
      ],
      "stateMutability": "view",
      "type": "function"
    },
    {
      "inputs": [],
      "name": "baseURI",
      "outputs": [
        {
          "internalType": "string",
          "name": "",
          "type": "string"
        }
      ],
      "stateMutability": "view",
      "type": "function"
    },
    {
      "inputs": [
        {
          "internalType": "uint256",
          "name": "tokenId",
          "type": "uint256"
        }
      ],
      "name": "getApproved",
      "outputs": [
        {
          "internalType": "address",
          "name": "",
          "type": "address"
        }
      ],
      "stateMutability": "view",
      "type": "function"
    },
    {
      "inputs": [],
      "name": "getBalance",
      "outputs": [
        {
          "internalType": "uint256",
          "name": "",
          "type": "uint256"
        }
      ],
      "stateMutability": "view",
      "type": "function"
    },
    {
      "inputs": [
        {
          "internalType": "address",
          "name": "owner",
          "type": "address"
        },
        {
          "internalType": "address",
          "name": "operator",
          "type": "address"
        }
      ],
      "name": "isApprovedForAll",
      "outputs": [
        {
          "internalType": "bool",
          "name": "",
          "type": "bool"
        }
      ],
      "stateMutability": "view",
      "type": "function"
    },
    {
      "inputs": [
        {
          "internalType": "uint256",
          "name": "quantity",
          "type": "uint256"
        }
      ],
      "name": "mint",
      "outputs": [],
      "stateMutability": "payable",
      "type": "function"
    },
    {
      "inputs": [],
      "name": "mintedCount",
      "outputs": [
        {
          "internalType": "uint256",
          "name": "",
          "type": "uint256"
        }
      ],
      "stateMutability": "view",
      "type": "function"
    },
    {
      "inputs": [],
      "name": "name",
      "outputs": [
        {
          "internalType": "string",
          "name": "",
          "type": "string"
        }
      ],
      "stateMutability": "view",
      "type": "function"
    },
    {
      "inputs": [],
      "name": "owner",
      "outputs": [
        {
          "internalType": "address",
          "name": "",
          "type": "address"
        }
      ],
      "stateMutability": "view",
      "type": "function"
    },
    {
      "inputs": [
        {
          "internalType": "uint256",
          "name": "tokenId",
          "type": "uint256"
        }
      ],
      "name": "ownerOf",
      "outputs": [
        {
          "internalType": "address",
          "name": "",
          "type": "address"
        }
      ],
      "stateMutability": "view",
      "type": "function"
    },
    {
      "inputs": [],
      "name": "price",
      "outputs": [
        {
          "internalType": "uint256",
          "name": "",
          "type": "uint256"
        }
      ],
      "stateMutability": "view",
      "type": "function"
    },
    {
      "inputs": [],
      "name": "renounceOwnership",
      "outputs": [],
      "stateMutability": "nonpayable",
      "type": "function"
    },
    {
      "inputs": [
        {
          "internalType": "address",
          "name": "from",
          "type": "address"
        },
        {
          "internalType": "address",
          "name": "to",
          "type": "address"
        },
        {
          "internalType": "uint256",
          "name": "tokenId",
          "type": "uint256"
        }
      ],
      "name": "safeTransferFrom",
      "outputs": [],
      "stateMutability": "nonpayable",
      "type": "function"
    },
    {
      "inputs": [
        {
          "internalType": "address",
          "name": "from",
          "type": "address"
        },
        {
          "internalType": "address",
          "name": "to",
          "type": "address"
        },
        {
          "internalType": "uint256",
          "name": "tokenId",
          "type": "uint256"
        },
        {
          "internalType": "bytes",
          "name": "_data",
          "type": "bytes"
        }
      ],
      "name": "safeTransferFrom",
      "outputs": [],
      "stateMutability": "nonpayable",
      "type": "function"
    },
    {
      "inputs": [],
      "name": "selfDestruct",
      "outputs": [],
      "stateMutability": "nonpayable",
      "type": "function"
    },
    {
      "inputs": [
        {
          "internalType": "address",
          "name": "operator",
          "type": "address"
        },
        {
          "internalType": "bool",
          "name": "approved",
          "type": "bool"
        }
      ],
      "name": "setApprovalForAll",
      "outputs": [],
      "stateMutability": "nonpayable",
      "type": "function"
    },
    {
      "inputs": [
        {
          "internalType": "string",
          "name": "_uri",
          "type": "string"
        }
      ],
      "name": "setBaseURI",
      "outputs": [],
      "stateMutability": "nonpayable",
      "type": "function"
    },
    {
      "inputs": [
        {
          "internalType": "bytes4",
          "name": "interfaceId",
          "type": "bytes4"
        }
      ],
      "name": "supportsInterface",
      "outputs": [
        {
          "internalType": "bool",
          "name": "",
          "type": "bool"
        }
      ],
      "stateMutability": "view",
      "type": "function"
    },
    {
      "inputs": [],
      "name": "symbol",
      "outputs": [
        {
          "internalType": "string",
          "name": "",
          "type": "string"
        }
      ],
      "stateMutability": "view",
      "type": "function"
    },
    {
      "inputs": [],
      "name": "toggleActive",
      "outputs": [],
      "stateMutability": "nonpayable",
      "type": "function"
    },
    {
      "inputs": [
        {
          "internalType": "uint256",
          "name": "index",
          "type": "uint256"
        }
      ],
      "name": "tokenByIndex",
      "outputs": [
        {
          "internalType": "uint256",
          "name": "",
          "type": "uint256"
        }
      ],
      "stateMutability": "view",
      "type": "function"
    },
    {
      "inputs": [
        {
          "internalType": "address",
          "name": "owner",
          "type": "address"
        },
        {
          "internalType": "uint256",
          "name": "index",
          "type": "uint256"
        }
      ],
      "name": "tokenOfOwnerByIndex",
      "outputs": [
        {
          "internalType": "uint256",
          "name": "",
          "type": "uint256"
        }
      ],
      "stateMutability": "view",
      "type": "function"
    },
    {
      "inputs": [
        {
          "internalType": "uint256",
          "name": "tokenId",
          "type": "uint256"
        }
      ],
      "name": "tokenURI",
      "outputs": [
        {
          "internalType": "string",
          "name": "",
          "type": "string"
        }
      ],
      "stateMutability": "view",
      "type": "function"
    },
    {
      "inputs": [],
      "name": "totalSupply",
      "outputs": [
        {
          "internalType": "uint256",
          "name": "",
          "type": "uint256"
        }
      ],
      "stateMutability": "view",
      "type": "function"
    },
    {
      "inputs": [
        {
          "internalType": "address",
          "name": "from",
          "type": "address"
        },
        {
          "internalType": "address",
          "name": "to",
          "type": "address"
        },
        {
          "internalType": "uint256",
          "name": "tokenId",
          "type": "uint256"
        }
      ],
      "name": "transferFrom",
      "outputs": [],
      "stateMutability": "nonpayable",
      "type": "function"
    },
    {
      "inputs": [
        {
          "internalType": "address",
          "name": "newOwner",
          "type": "address"
        }
      ],
      "name": "transferOwnership",
      "outputs": [],
      "stateMutability": "nonpayable",
      "type": "function"
    },
    {
      "inputs": [],
      "name": "withdraw",
      "outputs": [],
      "stateMutability": "nonpayable",
      "type": "function"
    },
    {
      "stateMutability": "payable",
      "type": "receive"
    }
  ],
  "bytecode": "0x60806040526000600d556103c0600e556032600f5567a688906bd8b000006010553480156200002d57600080fd5b506040516200485e3803806200485e8339818101604052810190620000539190620002de565b828281600090805190602001906200006d929190620001bc565b50806001908051906020019062000086929190620001bc565b505050620000a96200009d620000ee60201b60201c565b620000f660201b60201c565b6001600b8190555080600c9080519060200190620000c9929190620001bc565b506001601160006101000a81548160ff021916908315150217905550505050620004ef565b600033905090565b6000600a60009054906101000a900473ffffffffffffffffffffffffffffffffffffffff16905081600a60006101000a81548173ffffffffffffffffffffffffffffffffffffffff021916908373ffffffffffffffffffffffffffffffffffffffff1602179055508173ffffffffffffffffffffffffffffffffffffffff168173ffffffffffffffffffffffffffffffffffffffff167f8be0079c531659141344cd1fd0a4f28419497f9722a3daafe3b4186f6b6457e060405160405180910390a35050565b828054620001ca9062000414565b90600052602060002090601f016020900481019282620001ee57600085556200023a565b82601f106200020957805160ff19168380011785556200023a565b828001600101855582156200023a579182015b82811115620002395782518255916020019190600101906200021c565b5b5090506200024991906200024d565b5090565b5b80821115620002685760008160009055506001016200024e565b5090565b6000620002836200027d84620003a8565b6200037f565b9050828152602081018484840111156200029c57600080fd5b620002a9848285620003de565b509392505050565b600082601f830112620002c357600080fd5b8151620002d58482602086016200026c565b91505092915050565b600080600060608486031215620002f457600080fd5b600084015167ffffffffffffffff8111156200030f57600080fd5b6200031d86828701620002b1565b935050602084015167ffffffffffffffff8111156200033b57600080fd5b6200034986828701620002b1565b925050604084015167ffffffffffffffff8111156200036757600080fd5b6200037586828701620002b1565b9150509250925092565b60006200038b6200039e565b90506200039982826200044a565b919050565b6000604051905090565b600067ffffffffffffffff821115620003c657620003c5620004af565b5b620003d182620004de565b9050602081019050919050565b60005b83811015620003fe578082015181840152602081019050620003e1565b838111156200040e576000848401525b50505050565b600060028204905060018216806200042d57607f821691505b6020821081141562000444576200044362000480565b5b50919050565b6200045582620004de565b810181811067ffffffffffffffff82111715620004775762000476620004af565b5b80604052505050565b7f4e487b7100000000000000000000000000000000000000000000000000000000600052602260045260246000fd5b7f4e487b7100000000000000000000000000000000000000000000000000000000600052604160045260246000fd5b6000601f19601f8301169050919050565b61435f80620004ff6000396000f3fe6080604052600436106101dc5760003560e01c80636352211e11610102578063a0712d6811610095578063cf721b1511610064578063cf721b1514610684578063e985e9c5146106af578063f0292a03146106ec578063f2fde38b14610717576101e3565b8063a0712d68146105d9578063a22cb465146105f5578063b88d4fde1461061e578063c87b56dd14610647576101e3565b80638da5cb5b116100d15780638da5cb5b1461054157806395d89b411461056c5780639cb8a26a14610597578063a035b1fe146105ae576101e3565b80636352211e146104855780636c0360eb146104c257806370a08231146104ed578063715018a61461052a576101e3565b806318160ddd1161017a5780633ccfd60b116101495780633ccfd60b146103df57806342842e0e146103f65780634f6ccce71461041f57806355f804b31461045c576101e3565b806318160ddd1461033757806323b872dd1461036257806329c68dc11461038b5780632f745c59146103a2576101e3565b8063081812fc116101b6578063081812fc1461027b578063095ea7b3146102b857806309d42b30146102e157806312065fe01461030c576101e3565b806301ffc9a7146101e857806302fb0c5e1461022557806306fdde0314610250576101e3565b366101e357005b600080fd5b3480156101f457600080fd5b5061020f600480360381019061020a9190612d96565b610740565b60405161021c9190613420565b60405180910390f35b34801561023157600080fd5b5061023a6107ba565b6040516102479190613420565b60405180910390f35b34801561025c57600080fd5b506102656107cd565b604051610272919061343b565b60405180910390f35b34801561028757600080fd5b506102a2600480360381019061029d9190612e29565b61085f565b6040516102af91906133b9565b60405180910390f35b3480156102c457600080fd5b506102df60048036038101906102da9190612d5a565b6108e4565b005b3480156102ed57600080fd5b506102f66109fc565b604051610303919061379d565b60405180910390f35b34801561031857600080fd5b50610321610a02565b60405161032e919061379d565b60405180910390f35b34801561034357600080fd5b5061034c610a0a565b604051610359919061379d565b60405180910390f35b34801561036e57600080fd5b5061038960048036038101906103849190612c54565b610a17565b005b34801561039757600080fd5b506103a0610a77565b005b3480156103ae57600080fd5b506103c960048036038101906103c49190612d5a565b610b1f565b6040516103d6919061379d565b60405180910390f35b3480156103eb57600080fd5b506103f4610bc4565b005b34801561040257600080fd5b5061041d60048036038101906104189190612c54565b610c59565b005b34801561042b57600080fd5b5061044660048036038101906104419190612e29565b610c79565b604051610453919061379d565b60405180910390f35b34801561046857600080fd5b50610483600480360381019061047e9190612de8565b610d10565b005b34801561049157600080fd5b506104ac60048036038101906104a79190612e29565b610da6565b6040516104b991906133b9565b60405180910390f35b3480156104ce57600080fd5b506104d7610e58565b6040516104e4919061343b565b60405180910390f35b3480156104f957600080fd5b50610514600480360381019061050f9190612bef565b610ee6565b604051610521919061379d565b60405180910390f35b34801561053657600080fd5b5061053f610f9e565b005b34801561054d57600080fd5b50610556611026565b60405161056391906133b9565b60405180910390f35b34801561057857600080fd5b50610581611050565b60405161058e919061343b565b60405180910390f35b3480156105a357600080fd5b506105ac6110e2565b005b3480156105ba57600080fd5b506105c361117e565b6040516105d0919061379d565b60405180910390f35b6105f360048036038101906105ee9190612e29565b611184565b005b34801561060157600080fd5b5061061c60048036038101906106179190612d1e565b6113ca565b005b34801561062a57600080fd5b5061064560048036038101906106409190612ca3565b6113e0565b005b34801561065357600080fd5b5061066e60048036038101906106699190612e29565b611442565b60405161067b919061343b565b60405180910390f35b34801561069057600080fd5b506106996114ea565b6040516106a6919061379d565b60405180910390f35b3480156106bb57600080fd5b506106d660048036038101906106d19190612c18565b6114f0565b6040516106e39190613420565b60405180910390f35b3480156106f857600080fd5b50610701611584565b60405161070e919061379d565b60405180910390f35b34801561072357600080fd5b5061073e60048036038101906107399190612bef565b61158a565b005b60007f780e9d63000000000000000000000000000000000000000000000000000000007bffffffffffffffffffffffffffffffffffffffffffffffffffffffff1916827bffffffffffffffffffffffffffffffffffffffffffffffffffffffff191614806107b357506107b282611682565b5b9050919050565b601160009054906101000a900460ff1681565b6060600080546107dc90613a6d565b80601f016020809104026020016040519081016040528092919081815260200182805461080890613a6d565b80156108555780601f1061082a57610100808354040283529160200191610855565b820191906000526020600020905b81548152906001019060200180831161083857829003601f168201915b5050505050905090565b600061086a82611764565b6108a9576040517f08c379a00000000000000000000000000000000000000000000000000000000081526004016108a09061367d565b60405180910390fd5b6004600083815260200190815260200160002060009054906101000a900473ffffffffffffffffffffffffffffffffffffffff169050919050565b60006108ef82610da6565b90508073ffffffffffffffffffffffffffffffffffffffff168373ffffffffffffffffffffffffffffffffffffffff161415610960576040517f08c379a0000000000000000000000000000000000000000000000000000000008152600401610957906136fd565b60405180910390fd5b8073ffffffffffffffffffffffffffffffffffffffff1661097f6117d0565b73ffffffffffffffffffffffffffffffffffffffff1614806109ae57506109ad816109a86117d0565b6114f0565b5b6109ed576040517f08c379a00000000000000000000000000000000000000000000000000000000081526004016109e4906135bd565b60405180910390fd5b6109f783836117d8565b505050565b600f5481565b600047905090565b6000600880549050905090565b610a28610a226117d0565b82611891565b610a67576040517f08c379a0000000000000000000000000000000000000000000000000000000008152600401610a5e9061371d565b60405180910390fd5b610a7283838361196f565b505050565b610a7f6117d0565b73ffffffffffffffffffffffffffffffffffffffff16610a9d611026565b73ffffffffffffffffffffffffffffffffffffffff1614610af3576040517f08c379a0000000000000000000000000000000000000000000000000000000008152600401610aea9061369d565b60405180910390fd5b601160009054906101000a900460ff1615601160006101000a81548160ff021916908315150217905550565b6000610b2a83610ee6565b8210610b6b576040517f08c379a0000000000000000000000000000000000000000000000000000000008152600401610b629061345d565b60405180910390fd5b600660008473ffffffffffffffffffffffffffffffffffffffff1673ffffffffffffffffffffffffffffffffffffffff168152602001908152602001600020600083815260200190815260200160002054905092915050565b610bcc6117d0565b73ffffffffffffffffffffffffffffffffffffffff16610bea611026565b73ffffffffffffffffffffffffffffffffffffffff1614610c40576040517f08c379a0000000000000000000000000000000000000000000000000000000008152600401610c379061369d565b60405180910390fd5b6000479050610c56610c50611026565b82611bd6565b50565b610c74838383604051806020016040528060008152506113e0565b505050565b6000610c83610a0a565b8210610cc4576040517f08c379a0000000000000000000000000000000000000000000000000000000008152600401610cbb9061373d565b60405180910390fd5b60088281548110610cfe577f4e487b7100000000000000000000000000000000000000000000000000000000600052603260045260246000fd5b90600052602060002001549050919050565b610d186117d0565b73ffffffffffffffffffffffffffffffffffffffff16610d36611026565b73ffffffffffffffffffffffffffffffffffffffff1614610d8c576040517f08c379a0000000000000000000000000000000000000000000000000000000008152600401610d839061369d565b60405180910390fd5b80600c9080519060200190610da2929190612a13565b5050565b6000806002600084815260200190815260200160002060009054906101000a900473ffffffffffffffffffffffffffffffffffffffff169050600073ffffffffffffffffffffffffffffffffffffffff168173ffffffffffffffffffffffffffffffffffffffff161415610e4f576040517f08c379a0000000000000000000000000000000000000000000000000000000008152600401610e46906135fd565b60405180910390fd5b80915050919050565b600c8054610e6590613a6d565b80601f0160208091040260200160405190810160405280929190818152602001828054610e9190613a6d565b8015610ede5780601f10610eb357610100808354040283529160200191610ede565b820191906000526020600020905b815481529060010190602001808311610ec157829003601f168201915b505050505081565b60008073ffffffffffffffffffffffffffffffffffffffff168273ffffffffffffffffffffffffffffffffffffffff161415610f57576040517f08c379a0000000000000000000000000000000000000000000000000000000008152600401610f4e906135dd565b60405180910390fd5b600360008373ffffffffffffffffffffffffffffffffffffffff1673ffffffffffffffffffffffffffffffffffffffff168152602001908152602001600020549050919050565b610fa66117d0565b73ffffffffffffffffffffffffffffffffffffffff16610fc4611026565b73ffffffffffffffffffffffffffffffffffffffff161461101a576040517f08c379a00000000000000000000000000000000000000000000000000000000081526004016110119061369d565b60405180910390fd5b6110246000611cca565b565b6000600a60009054906101000a900473ffffffffffffffffffffffffffffffffffffffff16905090565b60606001805461105f90613a6d565b80601f016020809104026020016040519081016040528092919081815260200182805461108b90613a6d565b80156110d85780601f106110ad576101008083540402835291602001916110d8565b820191906000526020600020905b8154815290600101906020018083116110bb57829003601f168201915b5050505050905090565b6110ea6117d0565b73ffffffffffffffffffffffffffffffffffffffff16611108611026565b73ffffffffffffffffffffffffffffffffffffffff161461115e576040517f08c379a00000000000000000000000000000000000000000000000000000000081526004016111559061369d565b60405180910390fd5b611166611026565b73ffffffffffffffffffffffffffffffffffffffff16ff5b60105481565b601160009054906101000a900460ff166111d3576040517f08c379a00000000000000000000000000000000000000000000000000000000081526004016111ca906136bd565b60405180910390fd5b6002600b541415611219576040517f08c379a00000000000000000000000000000000000000000000000000000000081526004016112109061375d565b60405180910390fd5b6002600b81905550600e5481600d5461123291906138a2565b1115611273576040517f08c379a000000000000000000000000000000000000000000000000000000000815260040161126a9061361d565b60405180910390fd5b600f548111156112b8576040517f08c379a00000000000000000000000000000000000000000000000000000000081526004016112af9061349d565b60405180910390fd5b600081116112fb576040517f08c379a00000000000000000000000000000000000000000000000000000000081526004016112f29061377d565b60405180910390fd5b60008160105461130b9190613929565b905034811115611350576040517f08c379a00000000000000000000000000000000000000000000000000000000081526004016113479061363d565b60405180910390fd5b60005b8281101561139f57600e54600d54101561138c57600d600081548092919061137a90613ad0565b919050555061138b33600d54611d90565b5b808061139790613ad0565b915050611353565b50803411156113be576113bd3382346113b89190613983565b611bd6565b5b506001600b8190555050565b6113dc6113d56117d0565b8383611dae565b5050565b6113f16113eb6117d0565b83611891565b611430576040517f08c379a00000000000000000000000000000000000000000000000000000000081526004016114279061371d565b60405180910390fd5b61143c84848484611f1b565b50505050565b606061144d82611764565b61148c576040517f08c379a0000000000000000000000000000000000000000000000000000000008152600401611483906136dd565b60405180910390fd5b6000600c805461149b90613a6d565b9050116114b757604051806020016040528060008152506114e3565b600c6114c283611f77565b6040516020016114d3929190613375565b6040516020818303038152906040525b9050919050565b600d5481565b6000600560008473ffffffffffffffffffffffffffffffffffffffff1673ffffffffffffffffffffffffffffffffffffffff16815260200190815260200160002060008373ffffffffffffffffffffffffffffffffffffffff1673ffffffffffffffffffffffffffffffffffffffff16815260200190815260200160002060009054906101000a900460ff16905092915050565b600e5481565b6115926117d0565b73ffffffffffffffffffffffffffffffffffffffff166115b0611026565b73ffffffffffffffffffffffffffffffffffffffff1614611606576040517f08c379a00000000000000000000000000000000000000000000000000000000081526004016115fd9061369d565b60405180910390fd5b600073ffffffffffffffffffffffffffffffffffffffff168173ffffffffffffffffffffffffffffffffffffffff161415611676576040517f08c379a000000000000000000000000000000000000000000000000000000000815260040161166d906134bd565b60405180910390fd5b61167f81611cca565b50565b60007f80ac58cd000000000000000000000000000000000000000000000000000000007bffffffffffffffffffffffffffffffffffffffffffffffffffffffff1916827bffffffffffffffffffffffffffffffffffffffffffffffffffffffff1916148061174d57507f5b5e139f000000000000000000000000000000000000000000000000000000007bffffffffffffffffffffffffffffffffffffffffffffffffffffffff1916827bffffffffffffffffffffffffffffffffffffffffffffffffffffffff1916145b8061175d575061175c82612124565b5b9050919050565b60008073ffffffffffffffffffffffffffffffffffffffff166002600084815260200190815260200160002060009054906101000a900473ffffffffffffffffffffffffffffffffffffffff1673ffffffffffffffffffffffffffffffffffffffff1614159050919050565b600033905090565b816004600083815260200190815260200160002060006101000a81548173ffffffffffffffffffffffffffffffffffffffff021916908373ffffffffffffffffffffffffffffffffffffffff160217905550808273ffffffffffffffffffffffffffffffffffffffff1661184b83610da6565b73ffffffffffffffffffffffffffffffffffffffff167f8c5be1e5ebec7d5bd14f71427d1e84f3dd0314c0f7b2291e5b200ac8c7c3b92560405160405180910390a45050565b600061189c82611764565b6118db576040517f08c379a00000000000000000000000000000000000000000000000000000000081526004016118d29061359d565b60405180910390fd5b60006118e683610da6565b90508073ffffffffffffffffffffffffffffffffffffffff168473ffffffffffffffffffffffffffffffffffffffff16148061195557508373ffffffffffffffffffffffffffffffffffffffff1661193d8461085f565b73ffffffffffffffffffffffffffffffffffffffff16145b80611966575061196581856114f0565b5b91505092915050565b8273ffffffffffffffffffffffffffffffffffffffff1661198f82610da6565b73ffffffffffffffffffffffffffffffffffffffff16146119e5576040517f08c379a00000000000000000000000000000000000000000000000000000000081526004016119dc906134dd565b60405180910390fd5b600073ffffffffffffffffffffffffffffffffffffffff168273ffffffffffffffffffffffffffffffffffffffff161415611a55576040517f08c379a0000000000000000000000000000000000000000000000000000000008152600401611a4c9061351d565b60405180910390fd5b611a6083838361218e565b611a6b6000826117d8565b6001600360008573ffffffffffffffffffffffffffffffffffffffff1673ffffffffffffffffffffffffffffffffffffffff1681526020019081526020016000206000828254611abb9190613983565b925050819055506001600360008473ffffffffffffffffffffffffffffffffffffffff1673ffffffffffffffffffffffffffffffffffffffff1681526020019081526020016000206000828254611b1291906138a2565b92505081905550816002600083815260200190815260200160002060006101000a81548173ffffffffffffffffffffffffffffffffffffffff021916908373ffffffffffffffffffffffffffffffffffffffff160217905550808273ffffffffffffffffffffffffffffffffffffffff168473ffffffffffffffffffffffffffffffffffffffff167fddf252ad1be2c89b69c2b068fc378daa952ba7f163c4a11628f55a4df523b3ef60405160405180910390a4611bd18383836122a2565b505050565b80471015611c19576040517f08c379a0000000000000000000000000000000000000000000000000000000008152600401611c109061357d565b60405180910390fd5b60008273ffffffffffffffffffffffffffffffffffffffff1682604051611c3f906133a4565b60006040518083038185875af1925050503d8060008114611c7c576040519150601f19603f3d011682016040523d82523d6000602084013e611c81565b606091505b5050905080611cc5576040517f08c379a0000000000000000000000000000000000000000000000000000000008152600401611cbc9061355d565b60405180910390fd5b505050565b6000600a60009054906101000a900473ffffffffffffffffffffffffffffffffffffffff16905081600a60006101000a81548173ffffffffffffffffffffffffffffffffffffffff021916908373ffffffffffffffffffffffffffffffffffffffff1602179055508173ffffffffffffffffffffffffffffffffffffffff168173ffffffffffffffffffffffffffffffffffffffff167f8be0079c531659141344cd1fd0a4f28419497f9722a3daafe3b4186f6b6457e060405160405180910390a35050565b611daa8282604051806020016040528060008152506122a7565b5050565b8173ffffffffffffffffffffffffffffffffffffffff168373ffffffffffffffffffffffffffffffffffffffff161415611e1d576040517f08c379a0000000000000000000000000000000000000000000000000000000008152600401611e149061353d565b60405180910390fd5b80600560008573ffffffffffffffffffffffffffffffffffffffff1673ffffffffffffffffffffffffffffffffffffffff16815260200190815260200160002060008473ffffffffffffffffffffffffffffffffffffffff1673ffffffffffffffffffffffffffffffffffffffff16815260200190815260200160002060006101000a81548160ff0219169083151502179055508173ffffffffffffffffffffffffffffffffffffffff168373ffffffffffffffffffffffffffffffffffffffff167f17307eab39ab6107e8899845ad3d59bd9653f200f220920489ca2b5937696c3183604051611f0e9190613420565b60405180910390a3505050565b611f2684848461196f565b611f3284848484612302565b611f71576040517f08c379a0000000000000000000000000000000000000000000000000000000008152600401611f689061347d565b60405180910390fd5b50505050565b60606000821415611fbf576040518060400160405280600181526020017f3000000000000000000000000000000000000000000000000000000000000000815250905061211f565b600082905060005b60008214611ff1578080611fda90613ad0565b915050600a82611fea91906138f8565b9150611fc7565b60008167ffffffffffffffff811115612033577f4e487b7100000000000000000000000000000000000000000000000000000000600052604160045260246000fd5b6040519080825280601f01601f1916602001820160405280156120655781602001600182028036833780820191505090505b5090505b600085146121185760018261207e9190613983565b9150600a8561208d9190613b19565b603061209991906138a2565b60f81b8183815181106120d5577f4e487b7100000000000000000000000000000000000000000000000000000000600052603260045260246000fd5b60200101907effffffffffffffffffffffffffffffffffffffffffffffffffffffffffffff1916908160001a905350600a8561211191906138f8565b9450612069565b8093505050505b919050565b60007f01ffc9a7000000000000000000000000000000000000000000000000000000007bffffffffffffffffffffffffffffffffffffffffffffffffffffffff1916827bffffffffffffffffffffffffffffffffffffffffffffffffffffffff1916149050919050565b612199838383612499565b600073ffffffffffffffffffffffffffffffffffffffff168373ffffffffffffffffffffffffffffffffffffffff1614156121dc576121d78161249e565b61221b565b8173ffffffffffffffffffffffffffffffffffffffff168373ffffffffffffffffffffffffffffffffffffffff161461221a5761221983826124e7565b5b5b600073ffffffffffffffffffffffffffffffffffffffff168273ffffffffffffffffffffffffffffffffffffffff16141561225e5761225981612654565b61229d565b8273ffffffffffffffffffffffffffffffffffffffff168273ffffffffffffffffffffffffffffffffffffffff161461229c5761229b8282612797565b5b5b505050565b505050565b6122b18383612816565b6122be6000848484612302565b6122fd576040517f08c379a00000000000000000000000000000000000000000000000000000000081526004016122f49061347d565b60405180910390fd5b505050565b60006123238473ffffffffffffffffffffffffffffffffffffffff166129f0565b1561248c578373ffffffffffffffffffffffffffffffffffffffff1663150b7a0261234c6117d0565b8786866040518563ffffffff1660e01b815260040161236e94939291906133d4565b602060405180830381600087803b15801561238857600080fd5b505af19250505080156123b957506040513d601f19601f820116820180604052508101906123b69190612dbf565b60015b61243c573d80600081146123e9576040519150601f19603f3d011682016040523d82523d6000602084013e6123ee565b606091505b50600081511415612434576040517f08c379a000000000000000000000000000000000000000000000000000000000815260040161242b9061347d565b60405180910390fd5b805181602001fd5b63150b7a0260e01b7bffffffffffffffffffffffffffffffffffffffffffffffffffffffff1916817bffffffffffffffffffffffffffffffffffffffffffffffffffffffff191614915050612491565b600190505b949350505050565b505050565b6008805490506009600083815260200190815260200160002081905550600881908060018154018082558091505060019003906000526020600020016000909190919091505550565b600060016124f484610ee6565b6124fe9190613983565b90506000600760008481526020019081526020016000205490508181146125e3576000600660008673ffffffffffffffffffffffffffffffffffffffff1673ffffffffffffffffffffffffffffffffffffffff168152602001908152602001600020600084815260200190815260200160002054905080600660008773ffffffffffffffffffffffffffffffffffffffff1673ffffffffffffffffffffffffffffffffffffffff168152602001908152602001600020600084815260200190815260200160002081905550816007600083815260200190815260200160002081905550505b6007600084815260200190815260200160002060009055600660008573ffffffffffffffffffffffffffffffffffffffff1673ffffffffffffffffffffffffffffffffffffffff16815260200190815260200160002060008381526020019081526020016000206000905550505050565b600060016008805490506126689190613983565b90506000600960008481526020019081526020016000205490506000600883815481106126be577f4e487b7100000000000000000000000000000000000000000000000000000000600052603260045260246000fd5b906000526020600020015490508060088381548110612706577f4e487b7100000000000000000000000000000000000000000000000000000000600052603260045260246000fd5b90600052602060002001819055508160096000838152602001908152602001600020819055506009600085815260200190815260200160002060009055600880548061277b577f4e487b7100000000000000000000000000000000000000000000000000000000600052603160045260246000fd5b6001900381819060005260206000200160009055905550505050565b60006127a283610ee6565b905081600660008573ffffffffffffffffffffffffffffffffffffffff1673ffffffffffffffffffffffffffffffffffffffff168152602001908152602001600020600083815260200190815260200160002081905550806007600084815260200190815260200160002081905550505050565b600073ffffffffffffffffffffffffffffffffffffffff168273ffffffffffffffffffffffffffffffffffffffff161415612886576040517f08c379a000000000000000000000000000000000000000000000000000000000815260040161287d9061365d565b60405180910390fd5b61288f81611764565b156128cf576040517f08c379a00000000000000000000000000000000000000000000000000000000081526004016128c6906134fd565b60405180910390fd5b6128db6000838361218e565b6001600360008473ffffffffffffffffffffffffffffffffffffffff1673ffffffffffffffffffffffffffffffffffffffff168152602001908152602001600020600082825461292b91906138a2565b92505081905550816002600083815260200190815260200160002060006101000a81548173ffffffffffffffffffffffffffffffffffffffff021916908373ffffffffffffffffffffffffffffffffffffffff160217905550808273ffffffffffffffffffffffffffffffffffffffff16600073ffffffffffffffffffffffffffffffffffffffff167fddf252ad1be2c89b69c2b068fc378daa952ba7f163c4a11628f55a4df523b3ef60405160405180910390a46129ec600083836122a2565b5050565b6000808273ffffffffffffffffffffffffffffffffffffffff163b119050919050565b828054612a1f90613a6d565b90600052602060002090601f016020900481019282612a415760008555612a88565b82601f10612a5a57805160ff1916838001178555612a88565b82800160010185558215612a88579182015b82811115612a87578251825591602001919060010190612a6c565b5b509050612a959190612a99565b5090565b5b80821115612ab2576000816000905550600101612a9a565b5090565b6000612ac9612ac4846137dd565b6137b8565b905082815260208101848484011115612ae157600080fd5b612aec848285613a2b565b509392505050565b6000612b07612b028461380e565b6137b8565b905082815260208101848484011115612b1f57600080fd5b612b2a848285613a2b565b509392505050565b600081359050612b41816142cd565b92915050565b600081359050612b56816142e4565b92915050565b600081359050612b6b816142fb565b92915050565b600081519050612b80816142fb565b92915050565b600082601f830112612b9757600080fd5b8135612ba7848260208601612ab6565b91505092915050565b600082601f830112612bc157600080fd5b8135612bd1848260208601612af4565b91505092915050565b600081359050612be981614312565b92915050565b600060208284031215612c0157600080fd5b6000612c0f84828501612b32565b91505092915050565b60008060408385031215612c2b57600080fd5b6000612c3985828601612b32565b9250506020612c4a85828601612b32565b9150509250929050565b600080600060608486031215612c6957600080fd5b6000612c7786828701612b32565b9350506020612c8886828701612b32565b9250506040612c9986828701612bda565b9150509250925092565b60008060008060808587031215612cb957600080fd5b6000612cc787828801612b32565b9450506020612cd887828801612b32565b9350506040612ce987828801612bda565b925050606085013567ffffffffffffffff811115612d0657600080fd5b612d1287828801612b86565b91505092959194509250565b60008060408385031215612d3157600080fd5b6000612d3f85828601612b32565b9250506020612d5085828601612b47565b9150509250929050565b60008060408385031215612d6d57600080fd5b6000612d7b85828601612b32565b9250506020612d8c85828601612bda565b9150509250929050565b600060208284031215612da857600080fd5b6000612db684828501612b5c565b91505092915050565b600060208284031215612dd157600080fd5b6000612ddf84828501612b71565b91505092915050565b600060208284031215612dfa57600080fd5b600082013567ffffffffffffffff811115612e1457600080fd5b612e2084828501612bb0565b91505092915050565b600060208284031215612e3b57600080fd5b6000612e4984828501612bda565b91505092915050565b612e5b816139b7565b82525050565b612e6a816139c9565b82525050565b6000612e7b82613854565b612e85818561386a565b9350612e95818560208601613a3a565b612e9e81613c06565b840191505092915050565b6000612eb48261385f565b612ebe8185613886565b9350612ece818560208601613a3a565b612ed781613c06565b840191505092915050565b6000612eed8261385f565b612ef78185613897565b9350612f07818560208601613a3a565b80840191505092915050565b60008154612f2081613a6d565b612f2a8186613897565b94506001821660008114612f455760018114612f5657612f89565b60ff19831686528186019350612f89565b612f5f8561383f565b60005b83811015612f8157815481890152600182019150602081019050612f62565b838801955050505b50505092915050565b6000612f9f602b83613886565b9150612faa82613c17565b604082019050919050565b6000612fc2603283613886565b9150612fcd82613c66565b604082019050919050565b6000612fe5602783613886565b9150612ff082613cb5565b604082019050919050565b6000613008602683613886565b915061301382613d04565b604082019050919050565b600061302b602583613886565b915061303682613d53565b604082019050919050565b600061304e601c83613886565b915061305982613da2565b602082019050919050565b6000613071602483613886565b915061307c82613dcb565b604082019050919050565b6000613094601983613886565b915061309f82613e1a565b602082019050919050565b60006130b7603a83613886565b91506130c282613e43565b604082019050919050565b60006130da601d83613886565b91506130e582613e92565b602082019050919050565b60006130fd602c83613886565b915061310882613ebb565b604082019050919050565b6000613120603883613886565b915061312b82613f0a565b604082019050919050565b6000613143602a83613886565b915061314e82613f59565b604082019050919050565b6000613166602983613886565b915061317182613fa8565b604082019050919050565b6000613189601f83613886565b915061319482613ff7565b602082019050919050565b60006131ac601983613886565b91506131b782614020565b602082019050919050565b60006131cf602083613886565b91506131da82614049565b602082019050919050565b60006131f2602c83613886565b91506131fd82614072565b604082019050919050565b6000613215600583613897565b9150613220826140c1565b600582019050919050565b6000613238602083613886565b9150613243826140ea565b602082019050919050565b600061325b601283613886565b915061326682614113565b602082019050919050565b600061327e602f83613886565b91506132898261413c565b604082019050919050565b60006132a1602183613886565b91506132ac8261418b565b604082019050919050565b60006132c460008361387b565b91506132cf826141da565b600082019050919050565b60006132e7603183613886565b91506132f2826141dd565b604082019050919050565b600061330a602c83613886565b91506133158261422c565b604082019050919050565b600061332d601f83613886565b91506133388261427b565b602082019050919050565b6000613350601683613886565b915061335b826142a4565b602082019050919050565b61336f81613a21565b82525050565b60006133818285612f13565b915061338d8284612ee2565b915061339882613208565b91508190509392505050565b60006133af826132b7565b9150819050919050565b60006020820190506133ce6000830184612e52565b92915050565b60006080820190506133e96000830187612e52565b6133f66020830186612e52565b6134036040830185613366565b81810360608301526134158184612e70565b905095945050505050565b60006020820190506134356000830184612e61565b92915050565b600060208201905081810360008301526134558184612ea9565b905092915050565b6000602082019050818103600083015261347681612f92565b9050919050565b6000602082019050818103600083015261349681612fb5565b9050919050565b600060208201905081810360008301526134b681612fd8565b9050919050565b600060208201905081810360008301526134d681612ffb565b9050919050565b600060208201905081810360008301526134f68161301e565b9050919050565b6000602082019050818103600083015261351681613041565b9050919050565b6000602082019050818103600083015261353681613064565b9050919050565b6000602082019050818103600083015261355681613087565b9050919050565b60006020820190508181036000830152613576816130aa565b9050919050565b60006020820190508181036000830152613596816130cd565b9050919050565b600060208201905081810360008301526135b6816130f0565b9050919050565b600060208201905081810360008301526135d681613113565b9050919050565b600060208201905081810360008301526135f681613136565b9050919050565b6000602082019050818103600083015261361681613159565b9050919050565b600060208201905081810360008301526136368161317c565b9050919050565b600060208201905081810360008301526136568161319f565b9050919050565b60006020820190508181036000830152613676816131c2565b9050919050565b60006020820190508181036000830152613696816131e5565b9050919050565b600060208201905081810360008301526136b68161322b565b9050919050565b600060208201905081810360008301526136d68161324e565b9050919050565b600060208201905081810360008301526136f681613271565b9050919050565b6000602082019050818103600083015261371681613294565b9050919050565b60006020820190508181036000830152613736816132da565b9050919050565b60006020820190508181036000830152613756816132fd565b9050919050565b6000602082019050818103600083015261377681613320565b9050919050565b6000602082019050818103600083015261379681613343565b9050919050565b60006020820190506137b26000830184613366565b92915050565b60006137c26137d3565b90506137ce8282613a9f565b919050565b6000604051905090565b600067ffffffffffffffff8211156137f8576137f7613bd7565b5b61380182613c06565b9050602081019050919050565b600067ffffffffffffffff82111561382957613828613bd7565b5b61383282613c06565b9050602081019050919050565b60008190508160005260206000209050919050565b600081519050919050565b600081519050919050565b600082825260208201905092915050565b600081905092915050565b600082825260208201905092915050565b600081905092915050565b60006138ad82613a21565b91506138b883613a21565b9250827fffffffffffffffffffffffffffffffffffffffffffffffffffffffffffffffff038211156138ed576138ec613b4a565b5b828201905092915050565b600061390382613a21565b915061390e83613a21565b92508261391e5761391d613b79565b5b828204905092915050565b600061393482613a21565b915061393f83613a21565b9250817fffffffffffffffffffffffffffffffffffffffffffffffffffffffffffffffff048311821515161561397857613977613b4a565b5b828202905092915050565b600061398e82613a21565b915061399983613a21565b9250828210156139ac576139ab613b4a565b5b828203905092915050565b60006139c282613a01565b9050919050565b60008115159050919050565b60007fffffffff0000000000000000000000000000000000000000000000000000000082169050919050565b600073ffffffffffffffffffffffffffffffffffffffff82169050919050565b6000819050919050565b82818337600083830152505050565b60005b83811015613a58578082015181840152602081019050613a3d565b83811115613a67576000848401525b50505050565b60006002820490506001821680613a8557607f821691505b60208210811415613a9957613a98613ba8565b5b50919050565b613aa882613c06565b810181811067ffffffffffffffff82111715613ac757613ac6613bd7565b5b80604052505050565b6000613adb82613a21565b91507fffffffffffffffffffffffffffffffffffffffffffffffffffffffffffffffff821415613b0e57613b0d613b4a565b5b600182019050919050565b6000613b2482613a21565b9150613b2f83613a21565b925082613b3f57613b3e613b79565b5b828206905092915050565b7f4e487b7100000000000000000000000000000000000000000000000000000000600052601160045260246000fd5b7f4e487b7100000000000000000000000000000000000000000000000000000000600052601260045260246000fd5b7f4e487b7100000000000000000000000000000000000000000000000000000000600052602260045260246000fd5b7f4e487b7100000000000000000000000000000000000000000000000000000000600052604160045260246000fd5b6000601f19601f8301169050919050565b7f455243373231456e756d657261626c653a206f776e657220696e646578206f7560008201527f74206f6620626f756e6473000000000000000000000000000000000000000000602082015250565b7f4552433732313a207472616e7366657220746f206e6f6e20455243373231526560008201527f63656976657220696d706c656d656e7465720000000000000000000000000000602082015250565b7f526571756573746564207175616e746974792065786365656473206d6178207060008201527f6572206d696e7400000000000000000000000000000000000000000000000000602082015250565b7f4f776e61626c653a206e6577206f776e657220697320746865207a65726f206160008201527f6464726573730000000000000000000000000000000000000000000000000000602082015250565b7f4552433732313a207472616e736665722066726f6d20696e636f72726563742060008201527f6f776e6572000000000000000000000000000000000000000000000000000000602082015250565b7f4552433732313a20746f6b656e20616c7265616479206d696e74656400000000600082015250565b7f4552433732313a207472616e7366657220746f20746865207a65726f2061646460008201527f7265737300000000000000000000000000000000000000000000000000000000602082015250565b7f4552433732313a20617070726f766520746f2063616c6c657200000000000000600082015250565b7f416464726573733a20756e61626c6520746f2073656e642076616c75652c207260008201527f6563697069656e74206d61792068617665207265766572746564000000000000602082015250565b7f416464726573733a20696e73756666696369656e742062616c616e6365000000600082015250565b7f4552433732313a206f70657261746f7220717565727920666f72206e6f6e657860008201527f697374656e7420746f6b656e0000000000000000000000000000000000000000602082015250565b7f4552433732313a20617070726f76652063616c6c6572206973206e6f74206f7760008201527f6e6572206e6f7220617070726f76656420666f7220616c6c0000000000000000602082015250565b7f4552433732313a2062616c616e636520717565727920666f7220746865207a6560008201527f726f206164647265737300000000000000000000000000000000000000000000602082015250565b7f4552433732313a206f776e657220717565727920666f72206e6f6e657869737460008201527f656e7420746f6b656e0000000000000000000000000000000000000000000000602082015250565b7f4d696e74696e6720776f756c6420657863656564206d617820737570706c7900600082015250565b7f56616c75652073656e74206973206e6f7420636f727265637400000000000000600082015250565b7f4552433732313a206d696e7420746f20746865207a65726f2061646472657373600082015250565b7f4552433732313a20617070726f76656420717565727920666f72206e6f6e657860008201527f697374656e7420746f6b656e0000000000000000000000000000000000000000602082015250565b7f2e6a736f6e000000000000000000000000000000000000000000000000000000600082015250565b7f4f776e61626c653a2063616c6c6572206973206e6f7420746865206f776e6572600082015250565b7f4d696e74206973206e6f74206163746976650000000000000000000000000000600082015250565b7f4552433732314d657461646174613a2055524920717565727920666f72206e6f60008201527f6e6578697374656e7420746f6b656e0000000000000000000000000000000000602082015250565b7f4552433732313a20617070726f76616c20746f2063757272656e74206f776e6560008201527f7200000000000000000000000000000000000000000000000000000000000000602082015250565b50565b7f4552433732313a207472616e736665722063616c6c6572206973206e6f74206f60008201527f776e6572206e6f7220617070726f766564000000000000000000000000000000602082015250565b7f455243373231456e756d657261626c653a20676c6f62616c20696e646578206f60008201527f7574206f6620626f756e64730000000000000000000000000000000000000000602082015250565b7f5265656e7472616e637947756172643a207265656e7472616e742063616c6c00600082015250565b7f4d757374206d696e74206174206c65617374206f6e6500000000000000000000600082015250565b6142d6816139b7565b81146142e157600080fd5b50565b6142ed816139c9565b81146142f857600080fd5b50565b614304816139d5565b811461430f57600080fd5b50565b61431b81613a21565b811461432657600080fd5b5056fea26469706673582212206ef7c674fc7cb2248a73210e550bf5973305422b0f8894bcd6581c71416ce80c64736f6c63430008040033",
  "linkReferences": {},
  "deployedLinkReferences": {}
}