{
  "_format": "hh-sol-artifact-1",
  "contractName": "MiroslavasCreatures",
  "sourceName": "contracts/MiroslavasCreatures.sol",
  "abi": [
    {
      "inputs": [
        {
          "internalType": "string",
          "name": "_name",
          "type": "string"
        },
        {
          "internalType": "string",
          "name": "_symbol",
          "type": "string"
        },
        {
          "internalType": "string",
          "name": "_uri",
          "type": "string"
        }
      ],
      "stateMutability": "nonpayable",
      "type": "constructor"
    },
    {
      "anonymous": false,
      "inputs": [
        {
          "indexed": true,
          "internalType": "address",
          "name": "owner",
          "type": "address"
        },
        {
          "indexed": true,
          "internalType": "address",
          "name": "approved",
          "type": "address"
        },
        {
          "indexed": true,
          "internalType": "uint256",
          "name": "tokenId",
          "type": "uint256"
        }
      ],
      "name": "Approval",
      "type": "event"
    },
    {
      "anonymous": false,
      "inputs": [
        {
          "indexed": true,
          "internalType": "address",
          "name": "owner",
          "type": "address"
        },
        {
          "indexed": true,
          "internalType": "address",
          "name": "operator",
          "type": "address"
        },
        {
          "indexed": false,
          "internalType": "bool",
          "name": "approved",
          "type": "bool"
        }
      ],
      "name": "ApprovalForAll",
      "type": "event"
    },
    {
      "anonymous": false,
      "inputs": [
        {
          "indexed": true,
          "internalType": "address",
          "name": "previousOwner",
          "type": "address"
        },
        {
          "indexed": true,
          "internalType": "address",
          "name": "newOwner",
          "type": "address"
        }
      ],
      "name": "OwnershipTransferred",
      "type": "event"
    },
    {
      "anonymous": false,
      "inputs": [
        {
          "indexed": true,
          "internalType": "address",
          "name": "from",
          "type": "address"
        },
        {
          "indexed": true,
          "internalType": "address",
          "name": "to",
          "type": "address"
        },
        {
          "indexed": true,
          "internalType": "uint256",
          "name": "tokenId",
          "type": "uint256"
        }
      ],
      "name": "Transfer",
      "type": "event"
    },
    {
      "inputs": [],
      "name": "MAX_CREATURES",
      "outputs": [
        {
          "internalType": "uint256",
          "name": "",
          "type": "uint256"
        }
      ],
      "stateMutability": "view",
      "type": "function"
    },
    {
      "inputs": [],
      "name": "MAX_PER_MINT",
      "outputs": [
        {
          "internalType": "uint256",
          "name": "",
          "type": "uint256"
        }
      ],
      "stateMutability": "view",
      "type": "function"
    },
    {
      "inputs": [],
      "name": "active",
      "outputs": [
        {
          "internalType": "bool",
          "name": "",
          "type": "bool"
        }
      ],
      "stateMutability": "view",
      "type": "function"
    },
    {
      "inputs": [
        {
          "internalType": "address",
          "name": "to",
          "type": "address"
        },
        {
          "internalType": "uint256",
          "name": "tokenId",
          "type": "uint256"
        }
      ],
      "name": "approve",
      "outputs": [],
      "stateMutability": "nonpayable",
      "type": "function"
    },
    {
      "inputs": [
        {
          "internalType": "address",
          "name": "owner",
          "type": "address"
        }
      ],
      "name": "balanceOf",
      "outputs": [
        {
          "internalType": "uint256",
          "name": "",
          "type": "uint256"
        }
      ],
      "stateMutability": "view",
      "type": "function"
    },
    {
      "inputs": [],
      "name": "baseURI",
      "outputs": [
        {
          "internalType": "string",
          "name": "",
          "type": "string"
        }
      ],
      "stateMutability": "view",
      "type": "function"
    },
    {
      "inputs": [
        {
          "internalType": "uint256",
          "name": "tokenId",
          "type": "uint256"
        }
      ],
      "name": "getApproved",
      "outputs": [
        {
          "internalType": "address",
          "name": "",
          "type": "address"
        }
      ],
      "stateMutability": "view",
      "type": "function"
    },
    {
      "inputs": [],
      "name": "getBalance",
      "outputs": [
        {
          "internalType": "uint256",
          "name": "",
          "type": "uint256"
        }
      ],
      "stateMutability": "view",
      "type": "function"
    },
    {
      "inputs": [
        {
          "internalType": "address",
          "name": "owner",
          "type": "address"
        },
        {
          "internalType": "address",
          "name": "operator",
          "type": "address"
        }
      ],
      "name": "isApprovedForAll",
      "outputs": [
        {
          "internalType": "bool",
          "name": "",
          "type": "bool"
        }
      ],
      "stateMutability": "view",
      "type": "function"
    },
    {
      "inputs": [
        {
          "internalType": "uint256",
          "name": "quantity",
          "type": "uint256"
        }
      ],
      "name": "mintCreature",
      "outputs": [],
      "stateMutability": "payable",
      "type": "function"
    },
    {
      "inputs": [],
      "name": "mintedCount",
      "outputs": [
        {
          "internalType": "uint256",
          "name": "",
          "type": "uint256"
        }
      ],
      "stateMutability": "view",
      "type": "function"
    },
    {
      "inputs": [],
      "name": "name",
      "outputs": [
        {
          "internalType": "string",
          "name": "",
          "type": "string"
        }
      ],
      "stateMutability": "view",
      "type": "function"
    },
    {
      "inputs": [],
      "name": "owner",
      "outputs": [
        {
          "internalType": "address",
          "name": "",
          "type": "address"
        }
      ],
      "stateMutability": "view",
      "type": "function"
    },
    {
      "inputs": [
        {
          "internalType": "uint256",
          "name": "tokenId",
          "type": "uint256"
        }
      ],
      "name": "ownerOf",
      "outputs": [
        {
          "internalType": "address",
          "name": "",
          "type": "address"
        }
      ],
      "stateMutability": "view",
      "type": "function"
    },
    {
      "inputs": [],
      "name": "price",
      "outputs": [
        {
          "internalType": "uint256",
          "name": "",
          "type": "uint256"
        }
      ],
      "stateMutability": "view",
      "type": "function"
    },
    {
      "inputs": [],
      "name": "renounceOwnership",
      "outputs": [],
      "stateMutability": "nonpayable",
      "type": "function"
    },
    {
      "inputs": [
        {
          "internalType": "address",
          "name": "from",
          "type": "address"
        },
        {
          "internalType": "address",
          "name": "to",
          "type": "address"
        },
        {
          "internalType": "uint256",
          "name": "tokenId",
          "type": "uint256"
        }
      ],
      "name": "safeTransferFrom",
      "outputs": [],
      "stateMutability": "nonpayable",
      "type": "function"
    },
    {
      "inputs": [
        {
          "internalType": "address",
          "name": "from",
          "type": "address"
        },
        {
          "internalType": "address",
          "name": "to",
          "type": "address"
        },
        {
          "internalType": "uint256",
          "name": "tokenId",
          "type": "uint256"
        },
        {
          "internalType": "bytes",
          "name": "_data",
          "type": "bytes"
        }
      ],
      "name": "safeTransferFrom",
      "outputs": [],
      "stateMutability": "nonpayable",
      "type": "function"
    },
    {
      "inputs": [],
      "name": "selfDestruct",
      "outputs": [],
      "stateMutability": "nonpayable",
      "type": "function"
    },
    {
      "inputs": [
        {
          "internalType": "address",
          "name": "operator",
          "type": "address"
        },
        {
          "internalType": "bool",
          "name": "approved",
          "type": "bool"
        }
      ],
      "name": "setApprovalForAll",
      "outputs": [],
      "stateMutability": "nonpayable",
      "type": "function"
    },
    {
      "inputs": [
        {
          "internalType": "string",
          "name": "_uri",
          "type": "string"
        }
      ],
      "name": "setBaseURI",
      "outputs": [],
      "stateMutability": "nonpayable",
      "type": "function"
    },
    {
      "inputs": [
        {
          "internalType": "bytes4",
          "name": "interfaceId",
          "type": "bytes4"
        }
      ],
      "name": "supportsInterface",
      "outputs": [
        {
          "internalType": "bool",
          "name": "",
          "type": "bool"
        }
      ],
      "stateMutability": "view",
      "type": "function"
    },
    {
      "inputs": [],
      "name": "symbol",
      "outputs": [
        {
          "internalType": "string",
          "name": "",
          "type": "string"
        }
      ],
      "stateMutability": "view",
      "type": "function"
    },
    {
      "inputs": [],
      "name": "toggleActive",
      "outputs": [],
      "stateMutability": "nonpayable",
      "type": "function"
    },
    {
      "inputs": [
        {
          "internalType": "uint256",
          "name": "index",
          "type": "uint256"
        }
      ],
      "name": "tokenByIndex",
      "outputs": [
        {
          "internalType": "uint256",
          "name": "",
          "type": "uint256"
        }
      ],
      "stateMutability": "view",
      "type": "function"
    },
    {
      "inputs": [
        {
          "internalType": "address",
          "name": "owner",
          "type": "address"
        },
        {
          "internalType": "uint256",
          "name": "index",
          "type": "uint256"
        }
      ],
      "name": "tokenOfOwnerByIndex",
      "outputs": [
        {
          "internalType": "uint256",
          "name": "",
          "type": "uint256"
        }
      ],
      "stateMutability": "view",
      "type": "function"
    },
    {
      "inputs": [
        {
          "internalType": "uint256",
          "name": "tokenId",
          "type": "uint256"
        }
      ],
      "name": "tokenURI",
      "outputs": [
        {
          "internalType": "string",
          "name": "",
          "type": "string"
        }
      ],
      "stateMutability": "view",
      "type": "function"
    },
    {
      "inputs": [],
      "name": "totalSupply",
      "outputs": [
        {
          "internalType": "uint256",
          "name": "",
          "type": "uint256"
        }
      ],
      "stateMutability": "view",
      "type": "function"
    },
    {
      "inputs": [
        {
          "internalType": "address",
          "name": "from",
          "type": "address"
        },
        {
          "internalType": "address",
          "name": "to",
          "type": "address"
        },
        {
          "internalType": "uint256",
          "name": "tokenId",
          "type": "uint256"
        }
      ],
      "name": "transferFrom",
      "outputs": [],
      "stateMutability": "nonpayable",
      "type": "function"
    },
    {
      "inputs": [
        {
          "internalType": "address",
          "name": "newOwner",
          "type": "address"
        }
      ],
      "name": "transferOwnership",
      "outputs": [],
      "stateMutability": "nonpayable",
      "type": "function"
    },
    {
      "inputs": [],
      "name": "withdraw",
      "outputs": [],
      "stateMutability": "nonpayable",
      "type": "function"
    },
    {
      "stateMutability": "payable",
      "type": "receive"
    }
  ],
  "bytecode": "0x60806040526000600d556109c4600e556032600f55680821ab0d44149800006010553480156200002e57600080fd5b5060405162004809380380620048098339818101604052810190620000549190620002df565b828281600090805190602001906200006e929190620001bd565b50806001908051906020019062000087929190620001bd565b505050620000aa6200009e620000ef60201b60201c565b620000f760201b60201c565b6001600b8190555080600c9080519060200190620000ca929190620001bd565b506001601160006101000a81548160ff021916908315150217905550505050620004f0565b600033905090565b6000600a60009054906101000a900473ffffffffffffffffffffffffffffffffffffffff16905081600a60006101000a81548173ffffffffffffffffffffffffffffffffffffffff021916908373ffffffffffffffffffffffffffffffffffffffff1602179055508173ffffffffffffffffffffffffffffffffffffffff168173ffffffffffffffffffffffffffffffffffffffff167f8be0079c531659141344cd1fd0a4f28419497f9722a3daafe3b4186f6b6457e060405160405180910390a35050565b828054620001cb9062000415565b90600052602060002090601f016020900481019282620001ef57600085556200023b565b82601f106200020a57805160ff19168380011785556200023b565b828001600101855582156200023b579182015b828111156200023a5782518255916020019190600101906200021d565b5b5090506200024a91906200024e565b5090565b5b80821115620002695760008160009055506001016200024f565b5090565b6000620002846200027e84620003a9565b62000380565b9050828152602081018484840111156200029d57600080fd5b620002aa848285620003df565b509392505050565b600082601f830112620002c457600080fd5b8151620002d68482602086016200026d565b91505092915050565b600080600060608486031215620002f557600080fd5b600084015167ffffffffffffffff8111156200031057600080fd5b6200031e86828701620002b2565b935050602084015167ffffffffffffffff8111156200033c57600080fd5b6200034a86828701620002b2565b925050604084015167ffffffffffffffff8111156200036857600080fd5b6200037686828701620002b2565b9150509250925092565b60006200038c6200039f565b90506200039a82826200044b565b919050565b6000604051905090565b600067ffffffffffffffff821115620003c757620003c6620004b0565b5b620003d282620004df565b9050602081019050919050565b60005b83811015620003ff578082015181840152602081019050620003e2565b838111156200040f576000848401525b50505050565b600060028204905060018216806200042e57607f821691505b6020821081141562000445576200044462000481565b5b50919050565b6200045682620004df565b810181811067ffffffffffffffff82111715620004785762000477620004b0565b5b80604052505050565b7f4e487b7100000000000000000000000000000000000000000000000000000000600052602260045260246000fd5b7f4e487b7100000000000000000000000000000000000000000000000000000000600052604160045260246000fd5b6000601f19601f8301169050919050565b61430980620005006000396000f3fe6080604052600436106101dc5760003560e01c806355f804b311610102578063a035b1fe11610095578063c87b56dd11610064578063c87b56dd14610672578063cf721b15146106af578063e985e9c5146106da578063f2fde38b14610717576101e3565b8063a035b1fe146105ca578063a22cb465146105f5578063acae20d11461061e578063b88d4fde14610649576101e3565b8063715018a6116100d1578063715018a6146105465780638da5cb5b1461055d57806395d89b41146105885780639cb8a26a146105b3576101e3565b806355f804b3146104785780636352211e146104a15780636c0360eb146104de57806370a0823114610509576101e3565b806318160ddd1161017a5780633beb9327116101495780633beb9327146103df5780633ccfd60b146103fb57806342842e0e146104125780634f6ccce71461043b576101e3565b806318160ddd1461033757806323b872dd1461036257806329c68dc11461038b5780632f745c59146103a2576101e3565b8063081812fc116101b6578063081812fc1461027b578063095ea7b3146102b857806309d42b30146102e157806312065fe01461030c576101e3565b806301ffc9a7146101e857806302fb0c5e1461022557806306fdde0314610250576101e3565b366101e357005b600080fd5b3480156101f457600080fd5b5061020f600480360381019061020a9190612e2b565b610740565b60405161021c9190613408565b60405180910390f35b34801561023157600080fd5b5061023a6107ba565b6040516102479190613408565b60405180910390f35b34801561025c57600080fd5b506102656107cd565b6040516102729190613423565b60405180910390f35b34801561028757600080fd5b506102a2600480360381019061029d9190612ebe565b61085f565b6040516102af91906133a1565b60405180910390f35b3480156102c457600080fd5b506102df60048036038101906102da9190612def565b6108e4565b005b3480156102ed57600080fd5b506102f66109fc565b6040516103039190613785565b60405180910390f35b34801561031857600080fd5b50610321610a02565b60405161032e9190613785565b60405180910390f35b34801561034357600080fd5b5061034c610a0a565b6040516103599190613785565b60405180910390f35b34801561036e57600080fd5b5061038960048036038101906103849190612ce9565b610a17565b005b34801561039757600080fd5b506103a0610a77565b005b3480156103ae57600080fd5b506103c960048036038101906103c49190612def565b610b1f565b6040516103d69190613785565b60405180910390f35b6103f960048036038101906103f49190612ebe565b610bc4565b005b34801561040757600080fd5b50610410610e0e565b005b34801561041e57600080fd5b5061043960048036038101906104349190612ce9565b610ea3565b005b34801561044757600080fd5b50610462600480360381019061045d9190612ebe565b610ec3565b60405161046f9190613785565b60405180910390f35b34801561048457600080fd5b5061049f600480360381019061049a9190612e7d565b610f5a565b005b3480156104ad57600080fd5b506104c860048036038101906104c39190612ebe565b610ff0565b6040516104d591906133a1565b60405180910390f35b3480156104ea57600080fd5b506104f36110a2565b6040516105009190613423565b60405180910390f35b34801561051557600080fd5b50610530600480360381019061052b9190612c84565b611130565b60405161053d9190613785565b60405180910390f35b34801561055257600080fd5b5061055b6111e8565b005b34801561056957600080fd5b50610572611270565b60405161057f91906133a1565b60405180910390f35b34801561059457600080fd5b5061059d61129a565b6040516105aa9190613423565b60405180910390f35b3480156105bf57600080fd5b506105c861132c565b005b3480156105d657600080fd5b506105df6113c8565b6040516105ec9190613785565b60405180910390f35b34801561060157600080fd5b5061061c60048036038101906106179190612db3565b6113ce565b005b34801561062a57600080fd5b506106336113e4565b6040516106409190613785565b60405180910390f35b34801561065557600080fd5b50610670600480360381019061066b9190612d38565b6113ea565b005b34801561067e57600080fd5b5061069960048036038101906106949190612ebe565b61144c565b6040516106a69190613423565b60405180910390f35b3480156106bb57600080fd5b506106c46114f3565b6040516106d19190613785565b60405180910390f35b3480156106e657600080fd5b5061070160048036038101906106fc9190612cad565b6114f9565b60405161070e9190613408565b60405180910390f35b34801561072357600080fd5b5061073e60048036038101906107399190612c84565b61158d565b005b60007f780e9d63000000000000000000000000000000000000000000000000000000007bffffffffffffffffffffffffffffffffffffffffffffffffffffffff1916827bffffffffffffffffffffffffffffffffffffffffffffffffffffffff191614806107b357506107b282611685565b5b9050919050565b601160009054906101000a900460ff1681565b6060600080546107dc90613a40565b80601f016020809104026020016040519081016040528092919081815260200182805461080890613a40565b80156108555780601f1061082a57610100808354040283529160200191610855565b820191906000526020600020905b81548152906001019060200180831161083857829003601f168201915b5050505050905090565b600061086a82611767565b6108a9576040517f08c379a00000000000000000000000000000000000000000000000000000000081526004016108a090613685565b60405180910390fd5b6004600083815260200190815260200160002060009054906101000a900473ffffffffffffffffffffffffffffffffffffffff169050919050565b60006108ef82610ff0565b90508073ffffffffffffffffffffffffffffffffffffffff168373ffffffffffffffffffffffffffffffffffffffff161415610960576040517f08c379a000000000000000000000000000000000000000000000000000000000815260040161095790613705565b60405180910390fd5b8073ffffffffffffffffffffffffffffffffffffffff1661097f6117d3565b73ffffffffffffffffffffffffffffffffffffffff1614806109ae57506109ad816109a86117d3565b6114f9565b5b6109ed576040517f08c379a00000000000000000000000000000000000000000000000000000000081526004016109e4906135c5565b60405180910390fd5b6109f783836117db565b505050565b600f5481565b600047905090565b6000600880549050905090565b610a28610a226117d3565b82611894565b610a67576040517f08c379a0000000000000000000000000000000000000000000000000000000008152600401610a5e90613725565b60405180910390fd5b610a72838383611972565b505050565b610a7f6117d3565b73ffffffffffffffffffffffffffffffffffffffff16610a9d611270565b73ffffffffffffffffffffffffffffffffffffffff1614610af3576040517f08c379a0000000000000000000000000000000000000000000000000000000008152600401610aea906136a5565b60405180910390fd5b601160009054906101000a900460ff1615601160006101000a81548160ff021916908315150217905550565b6000610b2a83611130565b8210610b6b576040517f08c379a0000000000000000000000000000000000000000000000000000000008152600401610b6290613465565b60405180910390fd5b600660008473ffffffffffffffffffffffffffffffffffffffff1673ffffffffffffffffffffffffffffffffffffffff168152602001908152602001600020600083815260200190815260200160002054905092915050565b601160009054906101000a900460ff16610c13576040517f08c379a0000000000000000000000000000000000000000000000000000000008152600401610c0a906136c5565b60405180910390fd5b6002600b541415610c59576040517f08c379a0000000000000000000000000000000000000000000000000000000008152600401610c5090613765565b60405180910390fd5b6002600b81905550600e5481600d54610c729190613875565b1115610cb3576040517f08c379a0000000000000000000000000000000000000000000000000000000008152600401610caa90613625565b60405180910390fd5b600f54811115610cf8576040517f08c379a0000000000000000000000000000000000000000000000000000000008152600401610cef906134a5565b60405180910390fd5b60008111610d3b576040517f08c379a0000000000000000000000000000000000000000000000000000000008152600401610d3290613445565b60405180910390fd5b600081601054610d4b91906138fc565b905034811115610d90576040517f08c379a0000000000000000000000000000000000000000000000000000000008152600401610d8790613645565b60405180910390fd5b60005b82811015610de3576000600d549050600e54811015610dcf57600d6000815480929190610dbf90613aa3565b9190505550610dce3382611bd9565b5b508080610ddb90613aa3565b915050610d93565b5080341115610e0257610e01338234610dfc9190613956565b611bf7565b5b506001600b8190555050565b610e166117d3565b73ffffffffffffffffffffffffffffffffffffffff16610e34611270565b73ffffffffffffffffffffffffffffffffffffffff1614610e8a576040517f08c379a0000000000000000000000000000000000000000000000000000000008152600401610e81906136a5565b60405180910390fd5b6000479050610ea0610e9a611270565b82611bf7565b50565b610ebe838383604051806020016040528060008152506113ea565b505050565b6000610ecd610a0a565b8210610f0e576040517f08c379a0000000000000000000000000000000000000000000000000000000008152600401610f0590613745565b60405180910390fd5b60088281548110610f48577f4e487b7100000000000000000000000000000000000000000000000000000000600052603260045260246000fd5b90600052602060002001549050919050565b610f626117d3565b73ffffffffffffffffffffffffffffffffffffffff16610f80611270565b73ffffffffffffffffffffffffffffffffffffffff1614610fd6576040517f08c379a0000000000000000000000000000000000000000000000000000000008152600401610fcd906136a5565b60405180910390fd5b80600c9080519060200190610fec929190612aa8565b5050565b6000806002600084815260200190815260200160002060009054906101000a900473ffffffffffffffffffffffffffffffffffffffff169050600073ffffffffffffffffffffffffffffffffffffffff168173ffffffffffffffffffffffffffffffffffffffff161415611099576040517f08c379a000000000000000000000000000000000000000000000000000000000815260040161109090613605565b60405180910390fd5b80915050919050565b600c80546110af90613a40565b80601f01602080910402602001604051908101604052809291908181526020018280546110db90613a40565b80156111285780601f106110fd57610100808354040283529160200191611128565b820191906000526020600020905b81548152906001019060200180831161110b57829003601f168201915b505050505081565b60008073ffffffffffffffffffffffffffffffffffffffff168273ffffffffffffffffffffffffffffffffffffffff1614156111a1576040517f08c379a0000000000000000000000000000000000000000000000000000000008152600401611198906135e5565b60405180910390fd5b600360008373ffffffffffffffffffffffffffffffffffffffff1673ffffffffffffffffffffffffffffffffffffffff168152602001908152602001600020549050919050565b6111f06117d3565b73ffffffffffffffffffffffffffffffffffffffff1661120e611270565b73ffffffffffffffffffffffffffffffffffffffff1614611264576040517f08c379a000000000000000000000000000000000000000000000000000000000815260040161125b906136a5565b60405180910390fd5b61126e6000611ceb565b565b6000600a60009054906101000a900473ffffffffffffffffffffffffffffffffffffffff16905090565b6060600180546112a990613a40565b80601f01602080910402602001604051908101604052809291908181526020018280546112d590613a40565b80156113225780601f106112f757610100808354040283529160200191611322565b820191906000526020600020905b81548152906001019060200180831161130557829003601f168201915b5050505050905090565b6113346117d3565b73ffffffffffffffffffffffffffffffffffffffff16611352611270565b73ffffffffffffffffffffffffffffffffffffffff16146113a8576040517f08c379a000000000000000000000000000000000000000000000000000000000815260040161139f906136a5565b60405180910390fd5b6113b0611270565b73ffffffffffffffffffffffffffffffffffffffff16ff5b60105481565b6113e06113d96117d3565b8383611db1565b5050565b600e5481565b6113fb6113f56117d3565b83611894565b61143a576040517f08c379a000000000000000000000000000000000000000000000000000000000815260040161143190613725565b60405180910390fd5b61144684848484611f1e565b50505050565b606061145782611767565b611496576040517f08c379a000000000000000000000000000000000000000000000000000000000815260040161148d906136e5565b60405180910390fd5b60006114a0611f7a565b905060008151116114c057604051806020016040528060008152506114eb565b806114ca8461200c565b6040516020016114db929190613368565b6040516020818303038152906040525b915050919050565b600d5481565b6000600560008473ffffffffffffffffffffffffffffffffffffffff1673ffffffffffffffffffffffffffffffffffffffff16815260200190815260200160002060008373ffffffffffffffffffffffffffffffffffffffff1673ffffffffffffffffffffffffffffffffffffffff16815260200190815260200160002060009054906101000a900460ff16905092915050565b6115956117d3565b73ffffffffffffffffffffffffffffffffffffffff166115b3611270565b73ffffffffffffffffffffffffffffffffffffffff1614611609576040517f08c379a0000000000000000000000000000000000000000000000000000000008152600401611600906136a5565b60405180910390fd5b600073ffffffffffffffffffffffffffffffffffffffff168173ffffffffffffffffffffffffffffffffffffffff161415611679576040517f08c379a0000000000000000000000000000000000000000000000000000000008152600401611670906134c5565b60405180910390fd5b61168281611ceb565b50565b60007f80ac58cd000000000000000000000000000000000000000000000000000000007bffffffffffffffffffffffffffffffffffffffffffffffffffffffff1916827bffffffffffffffffffffffffffffffffffffffffffffffffffffffff1916148061175057507f5b5e139f000000000000000000000000000000000000000000000000000000007bffffffffffffffffffffffffffffffffffffffffffffffffffffffff1916827bffffffffffffffffffffffffffffffffffffffffffffffffffffffff1916145b80611760575061175f826121b9565b5b9050919050565b60008073ffffffffffffffffffffffffffffffffffffffff166002600084815260200190815260200160002060009054906101000a900473ffffffffffffffffffffffffffffffffffffffff1673ffffffffffffffffffffffffffffffffffffffff1614159050919050565b600033905090565b816004600083815260200190815260200160002060006101000a81548173ffffffffffffffffffffffffffffffffffffffff021916908373ffffffffffffffffffffffffffffffffffffffff160217905550808273ffffffffffffffffffffffffffffffffffffffff1661184e83610ff0565b73ffffffffffffffffffffffffffffffffffffffff167f8c5be1e5ebec7d5bd14f71427d1e84f3dd0314c0f7b2291e5b200ac8c7c3b92560405160405180910390a45050565b600061189f82611767565b6118de576040517f08c379a00000000000000000000000000000000000000000000000000000000081526004016118d5906135a5565b60405180910390fd5b60006118e983610ff0565b90508073ffffffffffffffffffffffffffffffffffffffff168473ffffffffffffffffffffffffffffffffffffffff16148061195857508373ffffffffffffffffffffffffffffffffffffffff166119408461085f565b73ffffffffffffffffffffffffffffffffffffffff16145b80611969575061196881856114f9565b5b91505092915050565b8273ffffffffffffffffffffffffffffffffffffffff1661199282610ff0565b73ffffffffffffffffffffffffffffffffffffffff16146119e8576040517f08c379a00000000000000000000000000000000000000000000000000000000081526004016119df906134e5565b60405180910390fd5b600073ffffffffffffffffffffffffffffffffffffffff168273ffffffffffffffffffffffffffffffffffffffff161415611a58576040517f08c379a0000000000000000000000000000000000000000000000000000000008152600401611a4f90613525565b60405180910390fd5b611a63838383612223565b611a6e6000826117db565b6001600360008573ffffffffffffffffffffffffffffffffffffffff1673ffffffffffffffffffffffffffffffffffffffff1681526020019081526020016000206000828254611abe9190613956565b925050819055506001600360008473ffffffffffffffffffffffffffffffffffffffff1673ffffffffffffffffffffffffffffffffffffffff1681526020019081526020016000206000828254611b159190613875565b92505081905550816002600083815260200190815260200160002060006101000a81548173ffffffffffffffffffffffffffffffffffffffff021916908373ffffffffffffffffffffffffffffffffffffffff160217905550808273ffffffffffffffffffffffffffffffffffffffff168473ffffffffffffffffffffffffffffffffffffffff167fddf252ad1be2c89b69c2b068fc378daa952ba7f163c4a11628f55a4df523b3ef60405160405180910390a4611bd4838383612337565b505050565b611bf382826040518060200160405280600081525061233c565b5050565b80471015611c3a576040517f08c379a0000000000000000000000000000000000000000000000000000000008152600401611c3190613585565b60405180910390fd5b60008273ffffffffffffffffffffffffffffffffffffffff1682604051611c609061338c565b60006040518083038185875af1925050503d8060008114611c9d576040519150601f19603f3d011682016040523d82523d6000602084013e611ca2565b606091505b5050905080611ce6576040517f08c379a0000000000000000000000000000000000000000000000000000000008152600401611cdd90613565565b60405180910390fd5b505050565b6000600a60009054906101000a900473ffffffffffffffffffffffffffffffffffffffff16905081600a60006101000a81548173ffffffffffffffffffffffffffffffffffffffff021916908373ffffffffffffffffffffffffffffffffffffffff1602179055508173ffffffffffffffffffffffffffffffffffffffff168173ffffffffffffffffffffffffffffffffffffffff167f8be0079c531659141344cd1fd0a4f28419497f9722a3daafe3b4186f6b6457e060405160405180910390a35050565b8173ffffffffffffffffffffffffffffffffffffffff168373ffffffffffffffffffffffffffffffffffffffff161415611e20576040517f08c379a0000000000000000000000000000000000000000000000000000000008152600401611e1790613545565b60405180910390fd5b80600560008573ffffffffffffffffffffffffffffffffffffffff1673ffffffffffffffffffffffffffffffffffffffff16815260200190815260200160002060008473ffffffffffffffffffffffffffffffffffffffff1673ffffffffffffffffffffffffffffffffffffffff16815260200190815260200160002060006101000a81548160ff0219169083151502179055508173ffffffffffffffffffffffffffffffffffffffff168373ffffffffffffffffffffffffffffffffffffffff167f17307eab39ab6107e8899845ad3d59bd9653f200f220920489ca2b5937696c3183604051611f119190613408565b60405180910390a3505050565b611f29848484611972565b611f3584848484612397565b611f74576040517f08c379a0000000000000000000000000000000000000000000000000000000008152600401611f6b90613485565b60405180910390fd5b50505050565b6060600c8054611f8990613a40565b80601f0160208091040260200160405190810160405280929190818152602001828054611fb590613a40565b80156120025780601f10611fd757610100808354040283529160200191612002565b820191906000526020600020905b815481529060010190602001808311611fe557829003601f168201915b5050505050905090565b60606000821415612054576040518060400160405280600181526020017f300000000000000000000000000000000000000000000000000000000000000081525090506121b4565b600082905060005b6000821461208657808061206f90613aa3565b915050600a8261207f91906138cb565b915061205c565b60008167ffffffffffffffff8111156120c8577f4e487b7100000000000000000000000000000000000000000000000000000000600052604160045260246000fd5b6040519080825280601f01601f1916602001820160405280156120fa5781602001600182028036833780820191505090505b5090505b600085146121ad576001826121139190613956565b9150600a856121229190613aec565b603061212e9190613875565b60f81b81838151811061216a577f4e487b7100000000000000000000000000000000000000000000000000000000600052603260045260246000fd5b60200101907effffffffffffffffffffffffffffffffffffffffffffffffffffffffffffff1916908160001a905350600a856121a691906138cb565b94506120fe565b8093505050505b919050565b60007f01ffc9a7000000000000000000000000000000000000000000000000000000007bffffffffffffffffffffffffffffffffffffffffffffffffffffffff1916827bffffffffffffffffffffffffffffffffffffffffffffffffffffffff1916149050919050565b61222e83838361252e565b600073ffffffffffffffffffffffffffffffffffffffff168373ffffffffffffffffffffffffffffffffffffffff1614156122715761226c81612533565b6122b0565b8173ffffffffffffffffffffffffffffffffffffffff168373ffffffffffffffffffffffffffffffffffffffff16146122af576122ae838261257c565b5b5b600073ffffffffffffffffffffffffffffffffffffffff168273ffffffffffffffffffffffffffffffffffffffff1614156122f3576122ee816126e9565b612332565b8273ffffffffffffffffffffffffffffffffffffffff168273ffffffffffffffffffffffffffffffffffffffff161461233157612330828261282c565b5b5b505050565b505050565b61234683836128ab565b6123536000848484612397565b612392576040517f08c379a000000000000000000000000000000000000000000000000000000000815260040161238990613485565b60405180910390fd5b505050565b60006123b88473ffffffffffffffffffffffffffffffffffffffff16612a85565b15612521578373ffffffffffffffffffffffffffffffffffffffff1663150b7a026123e16117d3565b8786866040518563ffffffff1660e01b815260040161240394939291906133bc565b602060405180830381600087803b15801561241d57600080fd5b505af192505050801561244e57506040513d601f19601f8201168201806040525081019061244b9190612e54565b60015b6124d1573d806000811461247e576040519150601f19603f3d011682016040523d82523d6000602084013e612483565b606091505b506000815114156124c9576040517f08c379a00000000000000000000000000000000000000000000000000000000081526004016124c090613485565b60405180910390fd5b805181602001fd5b63150b7a0260e01b7bffffffffffffffffffffffffffffffffffffffffffffffffffffffff1916817bffffffffffffffffffffffffffffffffffffffffffffffffffffffff191614915050612526565b600190505b949350505050565b505050565b6008805490506009600083815260200190815260200160002081905550600881908060018154018082558091505060019003906000526020600020016000909190919091505550565b6000600161258984611130565b6125939190613956565b9050600060076000848152602001908152602001600020549050818114612678576000600660008673ffffffffffffffffffffffffffffffffffffffff1673ffffffffffffffffffffffffffffffffffffffff168152602001908152602001600020600084815260200190815260200160002054905080600660008773ffffffffffffffffffffffffffffffffffffffff1673ffffffffffffffffffffffffffffffffffffffff168152602001908152602001600020600084815260200190815260200160002081905550816007600083815260200190815260200160002081905550505b6007600084815260200190815260200160002060009055600660008573ffffffffffffffffffffffffffffffffffffffff1673ffffffffffffffffffffffffffffffffffffffff16815260200190815260200160002060008381526020019081526020016000206000905550505050565b600060016008805490506126fd9190613956565b9050600060096000848152602001908152602001600020549050600060088381548110612753577f4e487b7100000000000000000000000000000000000000000000000000000000600052603260045260246000fd5b90600052602060002001549050806008838154811061279b577f4e487b7100000000000000000000000000000000000000000000000000000000600052603260045260246000fd5b906000526020600020018190555081600960008381526020019081526020016000208190555060096000858152602001908152602001600020600090556008805480612810577f4e487b7100000000000000000000000000000000000000000000000000000000600052603160045260246000fd5b6001900381819060005260206000200160009055905550505050565b600061283783611130565b905081600660008573ffffffffffffffffffffffffffffffffffffffff1673ffffffffffffffffffffffffffffffffffffffff168152602001908152602001600020600083815260200190815260200160002081905550806007600084815260200190815260200160002081905550505050565b600073ffffffffffffffffffffffffffffffffffffffff168273ffffffffffffffffffffffffffffffffffffffff16141561291b576040517f08c379a000000000000000000000000000000000000000000000000000000000815260040161291290613665565b60405180910390fd5b61292481611767565b15612964576040517f08c379a000000000000000000000000000000000000000000000000000000000815260040161295b90613505565b60405180910390fd5b61297060008383612223565b6001600360008473ffffffffffffffffffffffffffffffffffffffff1673ffffffffffffffffffffffffffffffffffffffff16815260200190815260200160002060008282546129c09190613875565b92505081905550816002600083815260200190815260200160002060006101000a81548173ffffffffffffffffffffffffffffffffffffffff021916908373ffffffffffffffffffffffffffffffffffffffff160217905550808273ffffffffffffffffffffffffffffffffffffffff16600073ffffffffffffffffffffffffffffffffffffffff167fddf252ad1be2c89b69c2b068fc378daa952ba7f163c4a11628f55a4df523b3ef60405160405180910390a4612a8160008383612337565b5050565b6000808273ffffffffffffffffffffffffffffffffffffffff163b119050919050565b828054612ab490613a40565b90600052602060002090601f016020900481019282612ad65760008555612b1d565b82601f10612aef57805160ff1916838001178555612b1d565b82800160010185558215612b1d579182015b82811115612b1c578251825591602001919060010190612b01565b5b509050612b2a9190612b2e565b5090565b5b80821115612b47576000816000905550600101612b2f565b5090565b6000612b5e612b59846137c5565b6137a0565b905082815260208101848484011115612b7657600080fd5b612b818482856139fe565b509392505050565b6000612b9c612b97846137f6565b6137a0565b905082815260208101848484011115612bb457600080fd5b612bbf8482856139fe565b509392505050565b600081359050612bd681614277565b92915050565b600081359050612beb8161428e565b92915050565b600081359050612c00816142a5565b92915050565b600081519050612c15816142a5565b92915050565b600082601f830112612c2c57600080fd5b8135612c3c848260208601612b4b565b91505092915050565b600082601f830112612c5657600080fd5b8135612c66848260208601612b89565b91505092915050565b600081359050612c7e816142bc565b92915050565b600060208284031215612c9657600080fd5b6000612ca484828501612bc7565b91505092915050565b60008060408385031215612cc057600080fd5b6000612cce85828601612bc7565b9250506020612cdf85828601612bc7565b9150509250929050565b600080600060608486031215612cfe57600080fd5b6000612d0c86828701612bc7565b9350506020612d1d86828701612bc7565b9250506040612d2e86828701612c6f565b9150509250925092565b60008060008060808587031215612d4e57600080fd5b6000612d5c87828801612bc7565b9450506020612d6d87828801612bc7565b9350506040612d7e87828801612c6f565b925050606085013567ffffffffffffffff811115612d9b57600080fd5b612da787828801612c1b565b91505092959194509250565b60008060408385031215612dc657600080fd5b6000612dd485828601612bc7565b9250506020612de585828601612bdc565b9150509250929050565b60008060408385031215612e0257600080fd5b6000612e1085828601612bc7565b9250506020612e2185828601612c6f565b9150509250929050565b600060208284031215612e3d57600080fd5b6000612e4b84828501612bf1565b91505092915050565b600060208284031215612e6657600080fd5b6000612e7484828501612c06565b91505092915050565b600060208284031215612e8f57600080fd5b600082013567ffffffffffffffff811115612ea957600080fd5b612eb584828501612c45565b91505092915050565b600060208284031215612ed057600080fd5b6000612ede84828501612c6f565b91505092915050565b612ef08161398a565b82525050565b612eff8161399c565b82525050565b6000612f1082613827565b612f1a818561383d565b9350612f2a818560208601613a0d565b612f3381613bd9565b840191505092915050565b6000612f4982613832565b612f538185613859565b9350612f63818560208601613a0d565b612f6c81613bd9565b840191505092915050565b6000612f8282613832565b612f8c818561386a565b9350612f9c818560208601613a0d565b80840191505092915050565b6000612fb5601f83613859565b9150612fc082613bea565b602082019050919050565b6000612fd8602b83613859565b9150612fe382613c13565b604082019050919050565b6000612ffb603283613859565b915061300682613c62565b604082019050919050565b600061301e602783613859565b915061302982613cb1565b604082019050919050565b6000613041602683613859565b915061304c82613d00565b604082019050919050565b6000613064602583613859565b915061306f82613d4f565b604082019050919050565b6000613087601c83613859565b915061309282613d9e565b602082019050919050565b60006130aa602483613859565b91506130b582613dc7565b604082019050919050565b60006130cd601983613859565b91506130d882613e16565b602082019050919050565b60006130f0603a83613859565b91506130fb82613e3f565b604082019050919050565b6000613113601d83613859565b915061311e82613e8e565b602082019050919050565b6000613136602c83613859565b915061314182613eb7565b604082019050919050565b6000613159603883613859565b915061316482613f06565b604082019050919050565b600061317c602a83613859565b915061318782613f55565b604082019050919050565b600061319f602983613859565b91506131aa82613fa4565b604082019050919050565b60006131c2601f83613859565b91506131cd82613ff3565b602082019050919050565b60006131e5601983613859565b91506131f08261401c565b602082019050919050565b6000613208602083613859565b915061321382614045565b602082019050919050565b600061322b602c83613859565b91506132368261406e565b604082019050919050565b600061324e602083613859565b9150613259826140bd565b602082019050919050565b6000613271601283613859565b915061327c826140e6565b602082019050919050565b6000613294602f83613859565b915061329f8261410f565b604082019050919050565b60006132b7602183613859565b91506132c28261415e565b604082019050919050565b60006132da60008361384e565b91506132e5826141ad565b600082019050919050565b60006132fd603183613859565b9150613308826141b0565b604082019050919050565b6000613320602c83613859565b915061332b826141ff565b604082019050919050565b6000613343601f83613859565b915061334e8261424e565b602082019050919050565b613362816139f4565b82525050565b60006133748285612f77565b91506133808284612f77565b91508190509392505050565b6000613397826132cd565b9150819050919050565b60006020820190506133b66000830184612ee7565b92915050565b60006080820190506133d16000830187612ee7565b6133de6020830186612ee7565b6133eb6040830185613359565b81810360608301526133fd8184612f05565b905095945050505050565b600060208201905061341d6000830184612ef6565b92915050565b6000602082019050818103600083015261343d8184612f3e565b905092915050565b6000602082019050818103600083015261345e81612fa8565b9050919050565b6000602082019050818103600083015261347e81612fcb565b9050919050565b6000602082019050818103600083015261349e81612fee565b9050919050565b600060208201905081810360008301526134be81613011565b9050919050565b600060208201905081810360008301526134de81613034565b9050919050565b600060208201905081810360008301526134fe81613057565b9050919050565b6000602082019050818103600083015261351e8161307a565b9050919050565b6000602082019050818103600083015261353e8161309d565b9050919050565b6000602082019050818103600083015261355e816130c0565b9050919050565b6000602082019050818103600083015261357e816130e3565b9050919050565b6000602082019050818103600083015261359e81613106565b9050919050565b600060208201905081810360008301526135be81613129565b9050919050565b600060208201905081810360008301526135de8161314c565b9050919050565b600060208201905081810360008301526135fe8161316f565b9050919050565b6000602082019050818103600083015261361e81613192565b9050919050565b6000602082019050818103600083015261363e816131b5565b9050919050565b6000602082019050818103600083015261365e816131d8565b9050919050565b6000602082019050818103600083015261367e816131fb565b9050919050565b6000602082019050818103600083015261369e8161321e565b9050919050565b600060208201905081810360008301526136be81613241565b9050919050565b600060208201905081810360008301526136de81613264565b9050919050565b600060208201905081810360008301526136fe81613287565b9050919050565b6000602082019050818103600083015261371e816132aa565b9050919050565b6000602082019050818103600083015261373e816132f0565b9050919050565b6000602082019050818103600083015261375e81613313565b9050919050565b6000602082019050818103600083015261377e81613336565b9050919050565b600060208201905061379a6000830184613359565b92915050565b60006137aa6137bb565b90506137b68282613a72565b919050565b6000604051905090565b600067ffffffffffffffff8211156137e0576137df613baa565b5b6137e982613bd9565b9050602081019050919050565b600067ffffffffffffffff82111561381157613810613baa565b5b61381a82613bd9565b9050602081019050919050565b600081519050919050565b600081519050919050565b600082825260208201905092915050565b600081905092915050565b600082825260208201905092915050565b600081905092915050565b6000613880826139f4565b915061388b836139f4565b9250827fffffffffffffffffffffffffffffffffffffffffffffffffffffffffffffffff038211156138c0576138bf613b1d565b5b828201905092915050565b60006138d6826139f4565b91506138e1836139f4565b9250826138f1576138f0613b4c565b5b828204905092915050565b6000613907826139f4565b9150613912836139f4565b9250817fffffffffffffffffffffffffffffffffffffffffffffffffffffffffffffffff048311821515161561394b5761394a613b1d565b5b828202905092915050565b6000613961826139f4565b915061396c836139f4565b92508282101561397f5761397e613b1d565b5b828203905092915050565b6000613995826139d4565b9050919050565b60008115159050919050565b60007fffffffff0000000000000000000000000000000000000000000000000000000082169050919050565b600073ffffffffffffffffffffffffffffffffffffffff82169050919050565b6000819050919050565b82818337600083830152505050565b60005b83811015613a2b578082015181840152602081019050613a10565b83811115613a3a576000848401525b50505050565b60006002820490506001821680613a5857607f821691505b60208210811415613a6c57613a6b613b7b565b5b50919050565b613a7b82613bd9565b810181811067ffffffffffffffff82111715613a9a57613a99613baa565b5b80604052505050565b6000613aae826139f4565b91507fffffffffffffffffffffffffffffffffffffffffffffffffffffffffffffffff821415613ae157613ae0613b1d565b5b600182019050919050565b6000613af7826139f4565b9150613b02836139f4565b925082613b1257613b11613b4c565b5b828206905092915050565b7f4e487b7100000000000000000000000000000000000000000000000000000000600052601160045260246000fd5b7f4e487b7100000000000000000000000000000000000000000000000000000000600052601260045260246000fd5b7f4e487b7100000000000000000000000000000000000000000000000000000000600052602260045260246000fd5b7f4e487b7100000000000000000000000000000000000000000000000000000000600052604160045260246000fd5b6000601f19601f8301169050919050565b7f4d757374206d696e74206174206c65617374206f6e6520637265617475726500600082015250565b7f455243373231456e756d657261626c653a206f776e657220696e646578206f7560008201527f74206f6620626f756e6473000000000000000000000000000000000000000000602082015250565b7f4552433732313a207472616e7366657220746f206e6f6e20455243373231526560008201527f63656976657220696d706c656d656e7465720000000000000000000000000000602082015250565b7f526571756573746564207175616e746974792065786365656473206d6178207060008201527f6572206d696e7400000000000000000000000000000000000000000000000000602082015250565b7f4f776e61626c653a206e6577206f776e657220697320746865207a65726f206160008201527f6464726573730000000000000000000000000000000000000000000000000000602082015250565b7f4552433732313a207472616e736665722066726f6d20696e636f72726563742060008201527f6f776e6572000000000000000000000000000000000000000000000000000000602082015250565b7f4552433732313a20746f6b656e20616c7265616479206d696e74656400000000600082015250565b7f4552433732313a207472616e7366657220746f20746865207a65726f2061646460008201527f7265737300000000000000000000000000000000000000000000000000000000602082015250565b7f4552433732313a20617070726f766520746f2063616c6c657200000000000000600082015250565b7f416464726573733a20756e61626c6520746f2073656e642076616c75652c207260008201527f6563697069656e74206d61792068617665207265766572746564000000000000602082015250565b7f416464726573733a20696e73756666696369656e742062616c616e6365000000600082015250565b7f4552433732313a206f70657261746f7220717565727920666f72206e6f6e657860008201527f697374656e7420746f6b656e0000000000000000000000000000000000000000602082015250565b7f4552433732313a20617070726f76652063616c6c6572206973206e6f74206f7760008201527f6e6572206e6f7220617070726f76656420666f7220616c6c0000000000000000602082015250565b7f4552433732313a2062616c616e636520717565727920666f7220746865207a6560008201527f726f206164647265737300000000000000000000000000000000000000000000602082015250565b7f4552433732313a206f776e657220717565727920666f72206e6f6e657869737460008201527f656e7420746f6b656e0000000000000000000000000000000000000000000000602082015250565b7f4d696e74696e6720776f756c6420657863656564206d617820737570706c7900600082015250565b7f56616c75652073656e74206973206e6f7420636f727265637400000000000000600082015250565b7f4552433732313a206d696e7420746f20746865207a65726f2061646472657373600082015250565b7f4552433732313a20617070726f76656420717565727920666f72206e6f6e657860008201527f697374656e7420746f6b656e0000000000000000000000000000000000000000602082015250565b7f4f776e61626c653a2063616c6c6572206973206e6f7420746865206f776e6572600082015250565b7f4d696e74206973206e6f74206163746976650000000000000000000000000000600082015250565b7f4552433732314d657461646174613a2055524920717565727920666f72206e6f60008201527f6e6578697374656e7420746f6b656e0000000000000000000000000000000000602082015250565b7f4552433732313a20617070726f76616c20746f2063757272656e74206f776e6560008201527f7200000000000000000000000000000000000000000000000000000000000000602082015250565b50565b7f4552433732313a207472616e736665722063616c6c6572206973206e6f74206f60008201527f776e6572206e6f7220617070726f766564000000000000000000000000000000602082015250565b7f455243373231456e756d657261626c653a20676c6f62616c20696e646578206f60008201527f7574206f6620626f756e64730000000000000000000000000000000000000000602082015250565b7f5265656e7472616e637947756172643a207265656e7472616e742063616c6c00600082015250565b6142808161398a565b811461428b57600080fd5b50565b6142978161399c565b81146142a257600080fd5b50565b6142ae816139a8565b81146142b957600080fd5b50565b6142c5816139f4565b81146142d057600080fd5b5056fea2646970667358221220ae335796c14e360da4136009dfc9f6edbb8ff6880e1ddd6191354408739ebed164736f6c63430008040033",
  "linkReferences": {},
  "deployedLinkReferences": {}
}